:1000000000300020C1000000D90500000F090000E9
:1000100000000000000000000000000000000000E0
:1000200000000000000000000000000011090000B6
:100030000000000000000000130900001509000086
:100040001709000017090000170900001709000030
:100050001709000017090000170900001709000020
:100060001709000017090000170900001709000010
:100070001709000017090000170900001709000000
:1000800017090000170900001709000017090000F0
:1000900017090000170900001709000017090000E0
:1000A00017090000170900001709000017090000D0
:1000B00017090000170900001709000017090000C0
:1000C0000749084A084B9B1A05DD002408591051BE
:1000D00004349C42FADB054880470548004700008D
:1000E00000550000C0F0FF1F44F1FF1F1909000078
:0400F000C504000043
:10040000FFFFFFFFFFFFFFFFFFFFFFFFFEFFFFFFFD
:10041000054B0648033310B51B1A062B03D9044BB2
:10042000002B00D0984710BD44F1FF1F44F1FF1F7F
:10043000000000000648074910B5091A8910CB0FC3
:100440005918491003D0044B002B00D0984710BD19
:1004500044F1FF1F44F1FF1F0000000010B5074CDE
:100460002378002B09D1FFF7D3FF054B002B02D0D7
:10047000044800E000BF0123237010BD44F1FF1FBA
:1004800000000000F4540000094B10B5002B03D00D
:100490000849094800E000BF08480368002B02D162
:1004A000FFF7C8FF10BD064B002BF9D09847F7E7C0
:1004B0000000000048F1FF1FF454000044F1FF1F4A
:1004C00000000000164B002B00D1144B9D4640222B
:1004D00092029A1A924600218B460F461348144AFC
:1004E000121A02F0EFFD0F4B002B00D098470E4B75
:1004F000002B00D098470020002104000D000D487B
:10050000002802D00C4800E000BF02F03BFD2000B4
:10051000290000F017FC02F0B7F9C04600000800FF
:1005200000300020000000000000000044F1FF1F28
:10053000B4F5FF1F000000000000000030B589B0D6
:1005400072B6154902A801F021FC144D144C12E0BA
:10055000039A059B96201A60019201F027FD02ABD9
:1005600000229B5E013311D0039A069B96201A60ED
:10057000019201F01BFD02AB00229B5E0133E7D12B
:10058000281C211C242201F09BFBE1E7281C211CD4
:10059000242201F095FBE7E7481000008C4C000096
:1005A000A44C00000A4A30B594689268231C002AC3
:1005B0000AD10023074A1D599A1804331560C02B2D
:1005C000F8D1044B024A936010308000C15030BD16
:1005D00000ED00E000F0FF1F00B587B06846102175
:1005E00001F0C4FB07B000BD036870B51B690021B2
:1005F0000122041C9847061C431C0ED023680021CE
:100600001B690222201C9847051C2368201C1B69BB
:10061000311C00229847281C70BDFDE708B503482F
:100620000821042200F022FF08BDC046A8F5FF1FE4
:10063000094B10B508330360084B00215A1CFF32E8
:1006400002E00433934206D01C688442F9D1196059
:1006500004339342F8D110BD304D000060F1FF1F0C
:10066000F0B5474680B40E1C82B03449051C03F037
:1006700097FC041E08D1324B1B68002B0FD0201CA6
:1006800002B004BC9046F0BD281C2E4903F088FC43
:10069000002807D12A4B01241B68002BEFD1FFF75C
:1006A000BDFFECE7281C284903F07AFC002824D081
:1006B000264F00243B1C03E001340433402C22D09D
:1006C0001A68002AF8D12B783A2B30D06846291CBA
:1006D00001F0B6F8684601F00DF9002813D068461D
:1006E00001F0EAF8002811D0684601F0F1F800287E
:1006F00009D0A300F8500334C1E7114B02241B6852
:10070000002BBCD1CBE701246442B8E7684601F076
:10071000C5F8051EF7D0036868469B68984601F047
:10072000BBF80B4A011C3240281CC047DFE7281CDD
:1007300008496A4603F0BEFB0098D8E7144D000054
:1007400070F4FF1F244D00001C4D000060F1FF1FDE
:10075000FFFFFEFF5C4D000008B5031C0020022BCC
:100760000ADD0749033B9B005A585850002A04D021
:100770001368101C5B68984708BD01204042FBE7E6
:1007800060F1FF1FF8B50C1C171C022812DC104B7F
:100790001B68002B01D1FFF741FF002F08D00D4D42
:1007A000E6192178281C013400F0D2FFB442F8D1B8
:1007B000381CF8BD0338084B8000C058002803D00F
:1007C00003681B689847F4E701204042F1E7C04600
:1007D00070F4FF1FA8F5FF1F60F1FF1F10B50C1C80
:1007E000022809DC0C4B1B68002B0FD00B4800F0D3
:1007F0009BFF2070012010BD0338094B8000C058BA
:10080000002806D003689B689847F4E7FFF706FFC7
:10081000ECE701204042EEE770F4FF1FA8F5FF1F50
:1008200060F1FF1F08B5031C0120022B08DD033B0C
:10083000054A9B009858002803D00368DB68984756
:1008400008BD01204042FBE760F1FF1F08B5031C13
:100850000020022B08DD033B05489B0018580028A8
:1008600003D003681B69984708BD01204042FBE79D
:1008700060F1FF1F08B5022804D8802300209B01E7
:100880004B6008BD01F0FAFF0923036001204042DC
:10089000F7E7C04608B5012001F0F6FF074A1368E4
:1008A0001818EFF30881884202D21060181C7047B4
:1008B0000C220120024B40421A60F8E7C4F0FF1FEF
:1008C000B0F5FF1F38B50B4C051C2368986802F083
:1008D00005F92368D86802F001F901F079FA0028D7
:1008E00005D1002D00D1FEE7FFF728FEFBE701F060
:1008F000B9FAF6E730F1FF1F08B5002103F028FA36
:1009000008BDC04608B502F02BF908BDFEE7FEE7BA
:10091000FEE7FEE7FEE7FEE78822002010B5802410
:10092000214B2249520198505A58A40022435A5050
:100930001F49204A9950204B204A996C11409964D4
:10094000D96C0A40DA6489221D4B1F211A702423B6
:100950001C4A537076331370D3780B40D370012345
:100960000F391371507193791942FCD10C2115483C
:100970008379144A0B40082BFAD10C213833537178
:1009800093790B40082BFBD140210E4882790D4B07
:100990001142FBD01A220C211A701A1C93790B40B9
:1009A0000C2BFBD110BDC046007004403810000075
:1009B000000001104410000000900440FFF8FFFE0A
:1009C00000500640004006407047000070B5304DB2
:1009D000280001F0DFF82F4A2F49137808780133F7
:1009E000DBB21370984249D800232C4C137040346A
:1009F0003C330B702000742101F04CF97821200069
:100A000001F048F96421200001F044F9742120002C
:100A100001F040F92021200001F03CF930212000B4
:100A200001F038F94421200001F034F93821200088
:100A300001F030F93521200001F02CF9302120009F
:100A400001F028F93021200001F024F9352120009F
:100A500001F020F93121200001F01CF9372120009C
:100A600001F018F93621200001F014F90D212000C1
:100A700001F010F90A21200001F00CF9084B2800C0
:100A8000AB6100230749EB6201F08CF870BDC046F2
:100A90003CF3FF1FC4F3FF1FF9F3FF1F6CF3FF1FAD
:100AA000CD0900000087930310B50A4A1378002B84
:100AB0000DD101211170084A08481370084AC36219
:100AC0001370084A0849826101F06CF801E00133B3
:100AD000137010BD39F3FF1F38F3FF1FB0F2FF1F73
:100AE000C5F3FF1F110C0000A086010070B50124A2
:100AF0000C4D280000F0F8FF002812D028004030EC
:100B000001F0D4F8084A1378002BF1D10749084DB9
:100B10000B78C0B2E85401330B700A28E8D1147086
:100B2000E6E770BD6CF3FF1F3AF3FF1FF8F3FF1FFA
:100B3000C6F3FF1FF8B5FF27104C200000F0D4FFCC
:100B400000281AD04034200001F0B0F80500C6B2E9
:100B50005B21200001F09EF829002000394001F0BF
:100B600099F8074A07491378CE54013313700A2EB7
:100B7000E2D10122044B1A70DEE7F8BDE0F2FF1F5C
:100B8000AEF2FF1F7CF2FF1F60F2FF1F10B50400E2
:100B900001F0D5FD200010BD10B50400044B03602A
:100BA00000F0F8FF200001F0B3F8200010BDC046AF
:100BB0003850000010B50400024B0360FFF7ECFF53
:100BC000200010BD2050000010B50400054B03604C
:100BD000054B40300360054B436001F049F82000AD
:100BE00010BDC046B04F0000C84F0000FC4F0000D1
:100BF00008B4024B9C46403808BC6047C90B000053
:100C000008B4024B9C46443808BC6047C90B00003E
:100C1000F8B53D4C200000F0BDFF3C4D3C4F2B781B
:100C200001332B700022BB5E013304D12C223949E1
:100C3000394801F045F87B697E681B68374A1E40D9
:100C400059D113780133DBB2042B4AD9344C7421C7
:100C500040342000167001F01DF87821200001F0CA
:100C600019F86421200001F015F87421200001F02A
:100C700011F82021200001F00DF83021200001F0B2
:100C800009F84421200001F005F83821200001F086
:100C900001F83521200000F0FDFF3021200000F098
:100CA000F9FF3021200000F0F5FF3521200000F091
:100CB000F1FF3121200000F0EDFF3721200000F08E
:100CC000E9FF3621200000F0E5FF0D21200000F0B3
:100CD000E1FF0A21200000F0DDFF124B2E701E7094
:100CE00011E01370104B1149A36100232000E3624F
:100CF00000F058FF07E0002313702A78132AF1D977
:100D0000084A2B701370F8BDB0F2FF1F38F3FF1FB5
:100D100054F4FF1F6A4D0000F04D0000C5F3FF1FA3
:100D20006CF3FF1F39F3FF1F110C0000A0860100B8
:100D300010B50400FFF730FF200001F000FD200097
:100D400010BD00000023F0B59A4C9B4D23709B4CC6
:100D50009B489C499C4A23709C4C2B7003700B70E1
:100D600013700026A35F85B0019500900291039255
:100D7000013304D124229649964800F0A1FF62680D
:100D8000E36800241A60944B944D1C70944B280027
:100D90001C70944B02211C7000F018FE2800924930
:100DA00000F01AFE9621914EC901300000F094FE29
:100DB00096218F4D8901280000F08EFE22008D497A
:100DC000300000F097FE22008B49280000F092FED0
:100DD00001228A4B8A481C708A4BC4621A708A4B63
:100DE0008A49836100F0DEFE00F01EFD029B1B7845
:100DF000012B00D0A0E07E4C52214034200000F0B6
:100E000049FF5621200000F045FF20003A2100F064
:100E100041FF0023674C2370019B22781B789A4284
:100E200008D27B4B7248995C403000F033FF237846
:100E30000133F0E7072B7AD9754C677C302F76D1D8
:100E4000A37C322B2BD1350040357421280000F0D3
:100E500021FF7821280000F01DFF6421280000F008
:100E600019FF7421280000F015FF2021280000F050
:100E700011FFE17A280000F00DFF217B280000F02F
:100E800009FFA17B280000F005FFE17B280000F0AE
:100E900001FF3900280000F0FDFE33212CE0332B48
:100EA00045D1350040357421280000F0F3FE78214B
:100EB000280000F0EFFE6421280000F0EBFE742112
:100EC000280000F0E7FE2021280000F0E3FEE17A90
:100ED000280000F0DFFE217B280000F0DBFEA17B74
:100EE000280000F0D7FEE17B280000F0D3FE390097
:100EF000280000F0CFFE3221280000F0CBFE217D3B
:100F0000280000F0C7FE617D280000F0C3FEE17DEF
:100F1000280000F0BFFE217E280000F0BBFE0D215E
:100F2000280000F0B7FE0A21280000F0B3FE0023DD
:100F3000029A1370019A1370039B1B78012B00D047
:100F400052E72B4C73214034200000F0A3FE6421B3
:100F5000200000F09FFE20003A2100F09BFE174C7D
:100F6000002325002370009A2B7812789A4209D921
:100F7000284A1F48D15C403000F08CFE2B780133AA
:100F80002B70F0E700232370009A0C4C1278237822
:100F90009A4208D930001F4A4030D15C00F07AFEF6
:100FA00023780133EFE70023039A1370009A13703C
:100FB0001AE7C0466CF4FF1FF8F3FF1F6DF4FF1F24
:100FC000AEF2FF1F3AF3FF1F60F2FF1F64F2FF1F34
:100FD0006A4D0000F04D000039F3FF1FFCF3FF1FC6
:100FE00038F3FF1FC5F3FF1FA90A00006CF3FF1FB2
:100FF000E0F2FF1FED0A0000350B0000C4F3FF1FF5
:101000003CF3FF1FF9F3FF1FCD090000A08601008C
:10101000C6F3FF1F7CF2FF1F10B50400FFF7D4FDDD
:10102000200001F08CFB200010BD08B4024B9C4650
:10103000403808BC6047C0461910000008B4024B95
:101040009C46443808BC60471910000010B50400E5
:10105000FFF7B0FD200001F072FB200010BD000082
:10106000F8B518262A4C32000021200002F02AF898
:101070002000284900F08AFE274C00230422082182
:10108000200000F0D5FC254D254F2A003900200016
:1010900001F04EFB8021234C0023234AC90120008C
:1010A00000F0C6FC2A003900200001F041FB1F4C73
:1010B0003421200000F066FC2A001D49200001F0C8
:1010C00037FB320000261B4C0021200001F0FAFF04
:1010D0003421200000F04AFE174C200000F002FEF0
:1010E000164B2A00A661E66215492000236001F034
:1010F0001FFB144C200000F0F5FD134BA661E662C7
:101100002A0012492000236001F012FBF8BDC046FE
:1011100064F2FF1F48100000E0F2FF1FC0F0FF1F45
:10112000C90B00006CF3FF1F04400000FCF3FF1F1D
:101130000119000054F4FF1FB0F2FF1F20500000FF
:10114000B50B00003CF3FF1F38500000990B000066
:101150000C4B0D4A10B5D0580C4B000F1B680130DA
:1011600058430B4B0B495B795B0606D580245358DB
:10117000640223435350400810BD5458064B23408B
:101180005350F9E74410000000700440C8F0FF1FFE
:101190000040064004100000FFFFFEFF38B5104B72
:1011A000104D1C792868E4B2002804D063B2002BEB
:1011B00011DBA30609D40A4A13791B0704D50823B7
:1011C00011790B43DBB2137138BD074B28681B68DC
:1011D00000219847EFE7044B01211B689847E8E797
:1011E00000A0064074F4FF1F80F4FF1F38B50C4BBD
:1011F0000C4D1C79A868E4B2002804D063B2002B1F
:1012000008DBA30600D438BD074BA8681B68002183
:101210009847F8E7044B01211B689847F1E7C0465F
:1012200000C0064074F4FF1F80F4FF1F38B50C4B5C
:101230000C4D1C796868E4B2002804D063B2002B1E
:1012400008DBA30600D438BD074B68681B68002183
:101250009847F8E7044B01211B689847F1E7C0461F
:1012600000B0064074F4FF1F80F4FF1FF8B54F462E
:101270004646C0B40F1C0C210368041CDE78DA78E3
:101280000E408A43DA7005684C4B9D421FD04C4B90
:101290004C4AD1584C4B4903490F0131186801F0B1
:1012A00053FA390101F050FA1F212B78020A0A4043
:1012B0008B4313432B702368C0B25A78587022684E
:1012C000D3781E43D6700CBC90469946F8BD3F2299
:1012D0003E4B904699461B78934336D03F21384B7E
:1012E000384AD058384B000F1B6801305843374BF1
:1012F0001A788A43802AD4D01A788A4335D15A7909
:10130000520634D49A79D2062FD41A783E399206EE
:10131000520F91400A1C30215B78194200D05201D3
:101320001F212A4BDB788B43602B36D02CD8202B07
:1013300036D0402B37D0002B04D02549504301F044
:1013400003FAAEE7A0218900F8E7FFF701FF0028C4
:1013500031D04B4642461B78934302D0256800208B
:101360009FE7FFF7F5FE25689BE7002099E71A79CC
:1013700059791F239C461340013358436346194053
:10138000183101F0E1F98CE7A02B11D0C02B0DD062
:10139000802BD2D1B7218900D0E7A0210901CDE768
:1013A000A021C900CAE7F021C900C7E70949C5E77C
:1013B000B721C900C2E7256890E7C04600A00640F3
:1013C0004410000000700440C8F0FF1F00400640B9
:1013D000710B000095080000F8B55C1E051C0F1C81
:1013E000161C012C04D91D481D49A62200F068FCDA
:1013F000022E29D8082F04D01A481949A82200F033
:101400005FFC0C202A68D3780340191CD3788343EF
:10141000D370012E20D0002E1CD0023E72427241A9
:10142000530020202A68640193702A68137883434C
:1014300013702B681A781443E4B21C700B1C2868D4
:10144000C2781343C370F8BD07480549A72200F0CE
:1014500037FCCFE70023E4E70323E2E7084E000070
:10146000304E0000F84E0000AC4E0000F8B54D467E
:1014700044465F465646644BF0B4051C0F1C081CDE
:10148000191C161C994600F0D5FC604B041C191C55
:10149000301C984600F0CEFC011C201C00F0B8FC6B
:1014A000041C431C00D1A4E0594B021E28609A4240
:1014B00000D180E0574B984251D0574B98425BD0B7
:1014C0000C21D3788B43D37008232A68D1780B433F
:1014D0004021D3702A6813791942FCD00C21D378AB
:1014E0008B43D3704A4B9C4262D04A4B9C425CD0A7
:1014F000494B9C4201D100236B609621281C890135
:10150000FFF7B4FE0123281C08210022FFF764FF27
:10151000381C494600F060FC301C414600F05CFC81
:101520007B1C08D008232A68381CD1780B43D37061
:10153000022100F05FF9731C08D004232A68301CD4
:10154000D1780B43D370022100F054F9324B9C4206
:1015500046D03CBC90469946A246AB46F8BD2F4BC0
:101560002F489B46C3589A4680235B015146194336
:101570000B1C59464350A3E73F212A4B1B788B4352
:1015800021D02748284B9B46C3589A468023514672
:101590001B0519430B1C59464350204B20489B46C2
:1015A000C3589A468023DB00E0E702236B60A4E780
:1015B00001236B60A1E7194B19489B46C3589A4613
:1015C00080231B01D2E7FFF7C3FD002819D080203C
:1015D000154A1349C0048B5803438B502A68DCE733
:1015E0000122124B291C1A601148073201F061FDDB
:1015F000AFE741220F48104900F062FB2C60221C2B
:101600005EE72A68BDE7C046CC510000605100008B
:1016100000B0064000C0064000A0064034100000A4
:1016200000700440004006400410000070F4FF1FEA
:10163000A8F5FF1F084F0000304E0000034B196053
:10164000436803499B005A507047C04680F4FF1F0F
:1016500074F4FF1F38B503682C4CA34235D02C4CD2
:10166000A3422FD02B4CA34212D000250024002AE5
:1016700012D0002944D0012937D064B2201C291C83
:10168000FEF790FF0123A3401C1C234B1C6038BDB8
:10169000224D0C24002AECD14A424A41D2B2002900
:1016A00028D0012914D0012A19D1DB785BB2DB43A1
:1016B000DB0F002BEBD00123A3401C1C8023164A18
:1016C000D450E4E7164D0E24D1E7164D0D24CEE795
:1016D0007F25D9782940D9700368012AE5D00122F5
:1016E000DB785B0953401340E3E78022D9780A4353
:1016F000DA70C2E72025D978A943D9700368D2E708
:101700002022D9780A43DA70B7E7C04600B0064015
:1017100000C0064000A0064000E100E09D1100006E
:10172000ED1100002D12000030B5202108250824FD
:1017300003681A79144204D01A792A43D2B21A7172
:1017400003681A791142F4D0D879C0B230BDC046CE
:1017500070B5082608257F24026813791D4204D03D
:1017600013793343DBB2137102681379A343F4D0C6
:10177000C9B2D17170BDC04603681A79120705D588
:10178000082219790A43D2B21A71036820201B7902
:1017900018407047F8B5051C0C1C431C17D0280BCB
:1017A000071C01230937BB400C4E0D492402725817
:1017B000134373500B4B9C46604403037C2028402A
:1017C00018180268084B13401C430460F8BD074812
:1017D0000749142200F074FAE1E7C04600700440A3
:1017E0003810000049000400FFF8FFFF184F000008
:1017F0002C4F000038B5041C0D1C431C08D0074BAF
:1018000003229C466444236893431D43256038BDEE
:1018100003480449212200F053FAF0E70090044005
:10182000184F00002C4F00002A22034B1A70002290
:10183000024B1A6130BF704700E0074000ED00E046
:1018400038B50023036043600B78041C2F2B01D0B4
:10185000201C38BD4B78002BFAD0481C20604B78F8
:101860002F2B14D0002B15D0031C01E0002A0CD024
:101870005D1A013323601A782F2AF7D1291C01330E
:10188000236000F00DFF6060E2E7291CF9E7031C0C
:101890000021F4E70021F4E700687047436810B5C1
:1018A000002B07D0041C181C00F01AFF012801D1DE
:1018B000606810BD0020FCE7406808B5002805D02E
:1018C00000F00EFF43425841C0B208BD0020FCE7C3
:1018D000436810B5002B0AD0041C181C00F000FF50
:1018E000002804D16068002801D0043810BD002011
:1018F000FCE7C0464068431E9841C0B27047C046EE
:1019000010B5041C034B083303601C3000F01CFCB2
:10191000201C10BD984F000010B5041C054B083367
:1019200003601C3000F010FC201C00F008FF201C9D
:1019300010BDC046984F000008B501290CD00229FF
:1019400009D1436D002B12D0026C002A03D0011C78
:10195000101C4431984708BDC36B002B0CD0826A21
:10196000002AF8D0011C101C2C319847F3E7036CB7
:10197000002BF0D09847EEE7836A002BEBD0984716
:10198000E9E7C04638B50F4B041C08330360002359
:101990000D1C83808360C360036143618361C36105
:1019A000036243628362C36303644365064A231C84
:1019B0001C3000F083FB201D291C00F0D7F9201CEF
:1019C00038BDC046984F00003919000008B50430F2
:1019D00000F046FC08BDC04608B50164002907D0E8
:1019E00000231C3083630221012200F0B5FB08BDF7
:1019F000416500221C30022100F0AEFBF7E7C04633
:101A000008B500F08FF808BD08B4024B9C4640387A
:101A100008BC6047011A000008B500F089F808BD4D
:101A200008B4024B9C46403808BC6047191A0000B5
:101A300038B5041C1D1C00F031F8201C291C403056
:101A400000F0F4F8054B201C1A1C083222601A1C06
:101A5000543320322264636438BDC046A84F00006E
:101A600008B54B1C5A00D318DB00C3189B68002B29
:101A70000BD04A005118C9004218D268002A03D07E
:101A800041181031101C984708BD4B005918C90067
:101A90004118CB68002BF7D09847F5E738B50C4BC9
:101AA000041C0360002343608360C36003624362DD
:101AB00083639623051D9B01C363281CFFF7D6FC97
:101AC000281C0449221CFFF7B9FD201C38BDC04664
:101AD00010500000611A000038B50D1C041C0430C1
:101AE000FFF7C4FBE56338BD08B50430FFF744FEDB
:101AF00008BDC04610B500290ED053009B18DB006E
:101B00000833C31859601C1D0023111C6361043085
:101B10000122FFF79FFD10BD111C04300022FFF7CA
:101B200099FDF8E708B50430FFF7FEFD08BDC04693
:101B300010B50C1C0430FFF70BFE201C10BDC04676
:101B400008B5C36A002B07D08269002A03D0011CA4
:101B5000101C1C31984708BD8369002BFBD09847A7
:101B6000F9E7C046426810B59446041C43696344D3
:101B7000191C00F0DBF8E36A002B06D0A0690028EE
:101B800002D0211C1C31984710BDA369002BFBD04B
:101B90009847F9E710B5041C00F0D0F80023A361C2
:101BA000E36210BD38B5051C0C1C00F0C7F86C6171
:101BB000286900F0DDF90119281C00F0B7F838BDDC
:101BC00000207047F8B58E18051C0F1C0C1EB4427F
:101BD00002D10AE0A64208D001342B68621E5B6A7B
:101BE0001178281C9847431CF4D1E01BF8BDC0466F
:101BF000F8B58E18051C0F1C0C1EB44205D10AE066
:101C00000134631E1870A64205D02B68281C9B6AFD
:101C10009847431CF4D1E01BF8BDC0460020704734
:101C200000207047002070470020704710B5041C4A
:101C300084B000F057FD0B4B01A81A1C3C336360C5
:101C400000230832636122600749221C02F010F968
:101C5000064901A801F082F86061FEF74DFE201CE4
:101C600004B010BD485000005C4D00008C500000D6
:101C7000074B10B51A1C041C08323C330260436049
:101C8000406900F06FFE201C00F040FD201C10BDDC
:101C90004850000038B50D1C041C406900F01EFFC0
:101CA000281C616901F08AF838BDC04610B5041CD3
:101CB000406900F013FF6069FEF724FE10BDC046C6
:101CC00038B5051C0C1C131C291C0248221C00F0F2
:101CD0003DF838BD9050000008B503689B689847F0
:101CE00008BDC046084B10B50833036000234360AD
:101CF0008360C360041C00F041F90449206100F0D6
:101D0000C3F8201C10BDC046C8500000D91C0000FC
:101D100010B5041C044B011D08330360006900F07A
:101D200003F9201C10BDC046C850000008B50A1CAD
:101D3000031C011D006900F0D7F808BD011C08B59F
:101D40000069043100F0F0F808BDC0460FB400B5DA
:101D5000054B83B004AA1B6802CAD868019201F03F
:101D600099FB012000F090FD30F1FF1F38B50D1CEC
:101D7000041C00F05BFA6B1C07D0201C002100F053
:101D800075FA201C022100F06BFA38BD38B50D1C25
:101D9000041C00F04BFA6B1C0ED00022A35E013332
:101DA0000BD023696268201C01211A6000F05EFAE2
:101DB000201C002100F054FA38BD034803492422B6
:101DC000FFF77EFFEDE7C0468C4C0000A44C0000FE
:101DD00008B500F053F808BD10B5041C431C03D12E
:101DE00009E09C4208D00C3100228B5E5A1CF8D1CD
:101DF0000648FFF7ABFF10BD201C8968FFF7CAFC3F
:101E0000201C0021FFF7F6FCF5E7C046DC5000007F
:101E100008B5884208D0431C07D04B1C04D00448A6
:101E2000FFF794FF0120404208BD081CFCE7C046B4
:101E3000F0500000021C08B5531C03D10BE09A427D
:101E40000AD00C3100200B5E581CF8D10448FFF773
:101E50007DFF0120404208BD4868431CFBD1F5E7E7
:101E60000451000030B585B06D461824201C291C93
:101E7000ABBE041C201C05B030BDC046014B186829
:101E80007047C046CCF0FF1F38B5041C0D1C03681A
:101E90001B68984763681D6038BDC04638B5036845
:101EA000051CDB6898476B685B680DE01C682B6855
:101EB0005B689847241A002C0CDC6A6851688B68B0
:101EC00053601268002A0CD1002BEFD12B689B685D
:101ED000984738BD6A682B6852681B691068984734
:101EE000F7E748689047DEE738B50D1C72B64B60DF
:101EF0000A6041684C68002C0ED02368D31A04D5C0
:101F00000AE01968511A03D41C1CA368002BF8D1ED
:101F1000A560AB6062B638BD03684D601B69101CDC
:101F20009847231CF5E7C04608B572B643685A685F
:101F30008A4211D0002A09D093688B4204D107E06D
:101F40009A688A4205D0131C002BF9D162B608BDED
:101F5000131C8A689A60F9E792685A600368002A3D
:101F600003D010681B699847F0E79B689847EDE736
:101F700008B503685B68984708BDC04600487047CD
:101F80005851000008B50248FFF788FF08BDC04659
:101F90005851000038B5051C00F0E0FA041C00F0B0
:101FA000DDFA001BA842FAD338BDC04608B5FA23B3
:101FB0009B005843FFF7EEFF08BDC046F8B55F46EB
:101FC000444656464D462F4BF0B49B462E4B041CC0
:101FD0000F1C9846A02301259A465346E658002E2A
:101FE00047D00422002029490B6883401E4203D1B8
:101FF0002B1C9340C018C0B20431013AF4D25A46A7
:102000003B189B009A58002AE7D083001959F02307
:102010001B030B40A02109038B420ED0B021090302
:102020008B4218D0902109038B420FD001238340AB
:102030009946A0234A46E250CCE70123834002217F
:1020400099464346101C1B689847F2E701238340DA
:1020500001219946F5E70E4B9C4210D00D4B1969B2
:1020600001238340194099464B1E99410223591A76
:10207000E7E73CBC90469946A246AB46F8BD064B06
:10208000EDE7C04690F4FF1F8CF4FF1F38520000AC
:1020900000900440C0F00FF800F00FF808B50248B7
:1020A0000021FFF78BFF08BD0090044008B50248EF
:1020B0002021FFF783FF08BD00C00440F0B547466C
:1020C00080B44C1C31D01D1C194B041C1A600B131E
:1020D0004906C90E03604160002B1FD0032B16D0A8
:1020E0001448FFF733FE01230020984640B2391C04
:1020F000FEF758FA424600200F4B1A606368F21848
:102100000E4BA2609200D55004BC9046F0BD8023D7
:102110001B060B4F98461F202026E7E78023DB0590
:10212000084F98461E200026E0E7081CECE7C04652
:102130008CF4FF1F4C52000000E100E090F4FF1F00
:10214000AD2000009D20000000218368014A9B0013
:102150009950704790F4FF1F70B5264C0368A44651
:1021600063441C034368F02090259B00E3181C681F
:10217000000320402D03A8422BD01DD9A0263603F2
:10218000B04212D0B0242403A04220D1041C002A63
:1021900002D12C1C01292AD01A681749114080222B
:1021A00052040A4322431A6070BD002A17D0022944
:1021B00013D0B0242403EFE7002808D10024002A1C
:1021C000EAD02C1C0129E7D0A0242403E4E7002452
:1021D000E2E7002A07D00129EBD1041CDCE7002448
:1021E0000129D9D1F9E700240229D5D1F5E7341C1A
:1021F000D2E7C04649000400FFFFF0FF10B5041C01
:10220000431C08D0201C0121FFF7C4FA01206406FA
:10221000E40EA04010BD034803491522FFF750FD0E
:10222000F0E7C046184F00007452000038B5051C96
:102230000C1C29804B1C10D0081CFFF7DFFF074B3C
:10224000240B9C466444A401231DEB6004332B61E2
:102250001434083368606B61AC6038BDC03FE00384
:1022600008B50023C05EFFF7C5FA08BD38B50022E7
:10227000835E041C0D1C01330FD0002D07D0012DEF
:1022800004D1A268636811680B43136038BDA2686B
:10229000616813688B431360F8E7034803493322EE
:1022A000FFF70EFDE9E7C0468C4C000074520000B9
:1022B000802038B51549164B00045A5801250243B1
:1022C0005A5000220121134C494222601132FF3240
:1022D000A15008320531A150A1582943A1500E4AFE
:1022E00099580E4B4903490F1868013100F02CFA38
:1022F0000B4B0C499C46604400F026FA80230138C1
:102300005B00E0500833E55038BDC0463C1000008B
:10231000007004400070034044100000C8F0FF1F2C
:1023200020A1070040420F0038B501245F4D604AEC
:102330001C20AB585F492343AB5000225E4B1A6010
:10234000FEF730F980223F215C4B52051A605C4B4E
:10235000E8585C4B000F1A685B4B013050431A7809
:102360008A43802A00D17AE01A788A4322D15A79A6
:10237000520645D49A79D2061CD41A785B78920614
:10238000520F94400F39221C194200D062011F21C4
:102390004D4BDB788B43602B00D17EE061D8202B46
:1023A00000D172E0402B00D17AE0002B00D16FE029
:1023B000464965E00222444B0E2019780A431A7000
:1023C000012259780A435A7000223B494A601A7A1E
:1023D000024010D0022A0BD01A7A82431A720422C9
:1023E000187A02431A7204234A6813434B6038BDBB
:1023F0004B684B60FBE708234A6813434B60F6E7E2
:102400001F211A795B790A40013219405043183173
:1024100000F09AF9041C002CCCD0201C2C4900F0B0
:1024200019FA0029C6D1201C294900F08DF901288C
:1024300020D0400801282ED0C307BBD4002301229E
:1024400001E00242B6D1013340080128F9D17822D7
:10245000DB001340753A1343174A5360C7E7041C67
:10246000D9E7A02B0AD0C02B1DD0802BA0D1B7213B
:10247000890005E00722104B5A60B8E7B721C90070
:10248000504300F061F9041CC5E7A021C900F7E73B
:10249000A0218900F4E70323DEE7A0210901EFE78B
:1024A000F021C900ECE70B49EAE7C04600700440A0
:1024B00038100000D92400000000044000E100E0D2
:1024C00044100000C8F0FF1F00400640710B0000E0
:1024D00040420F00950800008022154B10B5196886
:1024E0000A4314491A600A68002A12D1124908885E
:1024F00000280BD01A60986040201C6820431860A8
:1025000001201C68204318600A8010BDFFF73AFDC7
:10251000FBE7002018600948013A986040201C68D9
:102520002043186001201C68204318600A60ECE713
:102530000000044090F5FF1F98F5FF1FFFFF00000B
:1025400008B5054B1A68002A05D101321A60FFF759
:10255000AFFEFFF7E9FE08BD94F5FF1F08B5084B75
:102560001A68002A05D101321A60FFF7A1FEFFF7B1
:10257000DBFE8A23034A5B00D058C04308BDC04637
:1025800094F5FF1F007003404021024A13688B43FB
:1025900013607047000004407047C04610B5041C2B
:1025A000FFF7DCFF201A002823DD134C1349031426
:1025B00023600880124A0DD10004000C1360906063
:1025C00040201468204310600120146820431060EC
:1025D0000B8010BD002111600A49013B9160402130
:1025E00010680143116001211068014311602360EC
:1025F000EFE7FFF7C7FCECE790F5FF1F98F5FF1F2B
:1026000000000440FFFF00000A4B083303608368AA
:10261000002B0AD0084B1A68824201D106E01A1C2E
:1026200053688342FBD143685360704742681A6025
:10263000FBE7C046E85200009CF5FF1F0D4B10B5AC
:10264000083303608368041C002B0AD00A4B1A6805
:10265000904201D10AE01A1C53689C42FBD1636886
:102660005360201C00F06BF8201C10BD42681A60FB
:10267000F7E7C046E85200009CF5FF1F064B81605B
:1026800008330360002302734360002903D0034B27
:102690001A68186042607047E85200009CF5FF1FFE
:1026A0000E4B70B51C68061C0D1C002C03D112E0EB
:1026B0006468002C0FD0A0680028F9D0311C2A1CB7
:1026C00001F07FFC0028F3D1A06801F073FCA84260
:1026D000EED1201C00E0002070BDC0469CF5FF1F1D
:1026E000007B7047074B10B50022041C08C0FFF7A1
:1026F000C5FF054B201C1A1C34330832226063606E
:1027000010BDC046384D0000F8520000074B10B510
:102710001A1C041C08323433026043600430FFF793
:1027200073FF201CFDF784FF201C10BDF852000031
:102730000B0010B50100180000F092F810BD10B5A4
:1027400000F0A2FC10BD0000002243088B4274D3AD
:1027500003098B425FD3030A8B4244D3030B8B42A2
:1027600028D3030C8B420DD3FF22090212BA030CAB
:102770008B4202D31212090265D0030B8B4219D38C
:1027800000E0090AC30B8B4201D3CB03C01A5241AC
:10279000830B8B4201D38B03C01A5241430B8B42F4
:1027A00001D34B03C01A5241030B8B4201D30B03DD
:1027B000C01A5241C30A8B4201D3CB02C01A524104
:1027C000830A8B4201D38B02C01A5241430A8B42C7
:1027D00001D34B02C01A5241030A8B4201D30B02B0
:1027E000C01A5241CDD2C3098B4201D3CB01C01ACA
:1027F000524183098B4201D38B01C01A52414309D4
:102800008B4201D34B01C01A524103098B4201D3C1
:102810000B01C01A5241C3088B4201D3CB00C01A2E
:10282000524183088B4201D38B00C01A52414308A6
:102830008B4201D34B00C01A5241411A00D20146CB
:10284000524110467047FFE701B5002000F006F83E
:1028500002BDC0460029F7D076E770477047C046F2
:1028600070B5054C05001300201E04D00A0002209C
:10287000290000E000BF70BD00000000014B186897
:102880007047C04630F1FF1F084B10B50400002B05
:1028900002D0002100E000BF054B1868836A002BBE
:1028A00000D098472000FEF70DF8C0460000000059
:1028B0009453000070B505000C1E01D1002049E0C2
:1028C000002804D08369002B01D100F095F9224B38
:1028D0009C4201D16C6808E0204B9C4201D1AC685D
:1028E00003E01F4B9C4200D1EC680C22A35E002B3E
:1028F000E4D02100280000F03FF8236B0600002BF5
:1029000006D0216A28009847002801DA012676427D
:10291000A3891B0603D52169280000F0DBFB616B4E
:10292000002908D023004433994202D0280000F047
:10293000D1FB00236363A16C002904D0280000F0C0
:10294000C9FB0023A36400F0C9F90023A38100F0B0
:10295000C6F9300070BDC046345300005453000027
:102960007453000010B5034B01001868FFF7A2FF75
:1029700010BDC04630F1FF1FF7B58A8905000C0075
:1029800013075AD44B68002B02DC0B6C002B19DDAB
:10299000E76A002F16D000232E682B6080235B018E
:1029A0001A4001D0606D14E00123216A2800B84765
:1029B000431C0ED12B68002B0BD01D2B01D0162BE6
:1029C00002D12E6000205AE04022A3891343A38144
:1029D00055E0A3895B0706D56368C01A636B002BBB
:1029E00001D0236CC01A00230200216A2800E76A84
:1029F000B847A389421C06D129681D293AD8204A24
:102A0000CA40D20736D50022626022692260DB0408
:102A100005D5431C02D12B68002B00D16065616B8A
:102A20002E600029CED023004433994202D02800E2
:102A300000F050FB0020606321E00F69002FC1D03F
:102A40000B680F60DB1B01930023920700D14B69D9
:102A5000A36003E0019B3F181B1A0193019B002B0D
:102A6000B0DD019B3A00216A2800A66AB047002821
:102A7000F0DCA389402201201343A3814042FEBD24
:102A8000010040200B6970B505000C00002B01D13E
:102A900000201CE0002804D08369002B01D100F045
:102AA000ABF80B4B9C4201D16C6808E0094B9C428F
:102AB00001D1AC6803E0084B9C4200D1EC680C22C9
:102AC000A35E002BE4D021002800FFF755FF70BD66
:102AD00034530000545300007453000010B5011E1D
:102AE00005D1054B0549186800F02AFA03E0044BAC
:102AF0001868FFF7C7FF10BD94530000852A000037
:102B000030F1FF1F70B505000C00002804D0836968
:102B1000002B01D100F070F80E4B9C4201D16C6883
:102B200008E00D4B9C4201D1AC6803E00B4B9C428A
:102B300000D1EC686368013B6360002B04DA21007C
:102B4000280001F091F803E023685A1C22601878ED
:102B500070BDC0463453000054530000745300004D
:102B600010B5034B01001868FFF7CCFF10BDC0463D
:102B700030F1FF1F10B5024900F0E2F910BDC04668
:102B8000852A0000002310B50400036043608360C1
:102B900081814366C2810361436183611900082218
:102BA0005C3000F08FFA054B24626362044BA36231
:102BB000044BE362044B236310BDC046053F000095
:102BC000313F0000693F0000953F000070B5682567
:102BD0004B1E5D430E002900743100F0C1FA041E43
:102BE00008D000212A00016046600C30A0606832E5
:102BF00000F068FA200070BD836913B50400002B53
:102C000028D18364C3640365134B144A1B68826232
:102C10000193984201D101238361200000F020F844
:102C20006060200000F01CF8A060200000F018F8A0
:102C30000022E06004216068FFF7A4FF012209215F
:102C4000A068FFF79FFF02221221E068FFF79AFFBA
:102C50000123A36113BDC04694530000752B0000EF
:102C6000F8B51D4B06001D68AB69002B02D128008A
:102C7000FFF7C2FF4835AC686B68013B05D40C22F6
:102C8000A75E002F10D06834F7E72B68002B01D027
:102C90002D68F0E704213000FFF798FF2860002836
:102CA000F6D10C23336016E0012320005B42E38160
:102CB0000233A38167662760A76067602761676149
:102CC000A7615C300822390000F0FCF9200067633E
:102CD000A763A764E764F8BD94530000704770478A
:102CE000F7B50F00110001AA050001F0C3FB061E95
:102CF00001D1002427E02800FFF7B2FF041EF8D01E
:102D0000DB23019A5B003900280000F0C1FE002897
:102D100006DA0025FFF7E2FFA581FFF7E0FFE8E70D
:102D20000A4BE08163620A4BA681A362094B2462CD
:102D3000E362094B2363F30505D50223002221003A
:102D4000280000F045F82000FEBDC046053F000009
:102D5000313F0000693F0000953F000010B5034B74
:102D60000A0001001868FFF7BBFF10BD30F1FF1F1C
:102D700070B504000E001500002804D08369002BF4
:102D800001D1FFF739FF0A4B9D4201D1656808E088
:102D9000084B9D4201D1A56803E0074B9D4200D13D
:102DA000E5682A003100200000F086FE70BDC046B4
:102DB00034530000545300007453000010B5034B0B
:102DC0000A0001001868FFF7D3FF10BD30F1FF1FA4
:102DD00010B500F001F810BDF7B505000C00019228
:102DE0001E00002804D08369002B01D1FFF704FFE7
:102DF000414B9C4201D16C6808E0404B9C4201D1A0
:102E0000AC6803E03E4B9C4200D1EC688422A3896D
:102E100052001340934203D121002800FFF732FEF5
:102E2000E36A0093002B01D11D3331E0012E05D060
:102E3000022E31D01623002E2AD12DE021002800A9
:102E4000FFF720FE8023A2895B011A4001D0606D4C
:102E500006E03300216A2800009EB047431C18D0CA
:102E6000A3895A0707D56368C01A636B002B0AD081
:102E7000236CC01A07E01B0705D52368002B02D07E
:102E800022699B1AC018019B00261B18019303E0BE
:102E90002B6001277F422DE02369002B03D1210005
:102EA000280000F095F821002800FFF7EBFD071E31
:102EB000EFD13300019A216A2800009EB047431CDD
:102EC000E7D0616B002908D023004433994202D037
:102ED000280000F0FFF8002363630021200023692D
:102EE000A2892360074B61601340A3815C300822F4
:102EF00000F0E8F83800FEBD3453000054530000E1
:102F000074530000DFF7FFFFF7B5483004000026D8
:102F10000191002C12D0A5686768013F0CD4AB89E1
:102F2000012B07D90E22AB5E013303D02800019B91
:102F3000984706436835F0E72468EAE73000FEBDAD
:102F4000F7B504000700002601914834002C16D084
:102F50006368A5680093009B013B00930DD4AB8987
:102F6000012B08D90E22AB5E013304D029003800B2
:102F7000019B984706436835EDE72468E6E7300093
:102F8000FEBD00000E4B70B500251E000D4CE41A6E
:102F9000A410A54204D0AB00F35898470135F8E7D8
:102FA00001F068FE084B00251E00084CE41AA4102E
:102FB000A54204D0AB00F35898470135F8E770BD3F
:102FC00038F1FF1F38F1FF1F38F1FF1F40F1FF1FDD
:102FD000F0B58B8991B006000C009B0726D40E2318
:102FE000C95E002904DA8023A5891D4010D10CE0B8
:102FF00001AA01F079FA0028F5DBF023029D1B02FB
:103000001D401A4BED186B425D418027FF0001E027
:10301000002540273900300000F0A2F800280CD12C
:10302000A3899A051FD402221343A38123004733A7
:10303000236023610123636115E080220C4BB3629E
:10304000A38920601343A38120616761002D0AD00A
:103050000E23E15E300001F059FA002803D001226E
:10306000A3891343A38111B0F0BDC04600E0FFFF68
:10307000752B000010B5034B0100186800F070F8C4
:1030800010BDC04630F1FF1F10B5034B010018689A
:1030900000F020F810BDC04630F1FF1FC9B2821801
:1030A000904204D003788B4202D00130F8E7002030
:1030B0007047002310B59A4203D0CC5CC45401334E
:1030C000F9E710BD03008218934202D01970013352
:1030D000FAE7704730B500293ED004390B68002B61
:1030E00000DAC9181D4A13681400002B02D14B6086
:1030F000116031E08B420DD90A688818834203D1F0
:1031000018685B6882180A604B60216024E08A427C
:1031100003D813005A68002AF9D11D685C198C4243
:103120000BD10968691858181960824214D11068C7
:103130005268411819605A600EE08C4202D90C2383
:10314000036009E008680C18A24203D114685268B1
:10315000201808604A60596030BDC046A4F5FF1FC2
:10316000032370B5CD1C9D43083506000C2D01D2FC
:103170000C2505E0002D03DA0C230020336040E02D
:10318000A942F9D81F4B1C681A002100002913D04E
:103190000B685B1B0DD40B2B02D90B60CC181EE007
:1031A0008C4202D1636813601AE04B6863600C00C4
:1031B00016E00C004968E9E7134C2368002B03D1A3
:1031C000300000F081FD20602900300000F07CFD1F
:1031D000431CD1D00323C41C9C43A0420AD12560C8
:1031E000200007220B30231D9043C31A09D05A42F6
:1031F000E25006E0211A300000F066FD431CEED1DB
:10320000BAE770BDA4F5FF1FA0F5FF1F936810B5C6
:10321000013B9360002B05DA9469A34208DBCBB233
:103220000A2B05D01368581C10601970C8B201E051
:1032300001F02EF810BDF8B506000F001400D518E7
:10324000AC4208D021783A003000FFF7DFFF0134AC
:10325000431CF5D100E00020F8BD0000F0B59FB0A0
:1032600006000F0002920593002804D08369002B0A
:1032700001D1FFF7C1FC7F4B9F4201D1776808E085
:103280007D4B9F4201D1B76803E07C4B9F4200D148
:10329000F768BB891B070AD53B69002B07D00023C1
:1032A00006AD6B6120336B761033AB763DE03900B1
:1032B000300001F059F80028F1D001204042D6E05A
:1032C000059A111D12680591002A00DA7FE0099223
:1032D000013423782E2B00D18DE021780322684819
:1032E000FFF7DCFE002807D0654B2A68C01A402390
:1032F000834013432B6001342178631C062261480C
:1033000002932976FFF7CAFE002800D19DE05E4BAC
:10331000002B00D090E00722059B0733934308332E
:1033200005936B69039A9B186B61029C2378002BB1
:1033300004D1029BE31A049312D003E0252BF8D0AA
:103340000134F3E7049B029A39003000FFF773FF62
:10335000431C00D186E06A69049B944663446B6118
:103360002378002B7ED00122002352426A6002A9FA
:103370005432521801342B60EB60AB601370AB65B4
:10338000217805224148FFF789FE002808D03F4BED
:103390002A68C01A0123834013432B600134EFE7EE
:1033A0002B68DA0604D55322202102A812181170C6
:1033B0001A0704D553222B2102A812181170227863
:1033C0002A2A00D17CE7099B00200A2105E052420D
:1033D000EA60022213432B607AE72278303A092A06
:1033E00004D84B4301349B180120F6E7002800D194
:1033F0006FE709936DE763782A2B0AD1059B0234A6
:103400001A1D1B680592002B01DA01235B4207930A
:1034100063E700230A201A0001346B6021783039F9
:10342000092904D84243013452180123F6E7002B3E
:1034300000D152E7079250E705AB00933A00144BD6
:103440002900300000E000BF07E005AB00933A0020
:103450000F4B2900300000F097F80390039B0133D5
:1034600000D05EE7BB895B0600D526E70B981FB04E
:10347000F0BDC046345300005453000074530000A4
:103480009E530000A253000000000000985300006B
:103490003732000010B513000A000100024800682E
:1034A000FFF7DCFE10BDC04630F1FF1FF7B5170077
:1034B00001938A680B6900900C00934200DA1300B4
:1034C00022003B6043321278002A01D001333B6076
:1034D00023689B0602D53B6802333B6006252368C0
:1034E0001D401ED0230043331B785A1E934122688F
:1034F00092061CD53020E1184331087021005A1C77
:1035000045310978A2184332023311700FE02200CE
:103510000123193201990098089EB047431C0ED030
:103520000135E3683A689B1A9D42F0DBDAE7220036
:10353000019943320098089DA847431C02D10120FD
:10354000404220E006232068E1683A6803400025F5
:10355000042B03D18D1AEB43DB171D40A3682269AE
:10356000934201DD9B1AED180027BD420AD02200CC
:1035700001231A3201990098089EB047431CDED0FF
:103580000137F2E70020FEBDF0B58BB006920A00CD
:1035900043320793059004920A7E0C00109B6E2A1A
:1035A00000D1ABE011D8632A22D009D8002A00D17B
:1035B000B5E0582A00D0C5E045310A70814A4FE095
:1035C000642A1DD0692A1BD0BCE0732A00D1AAE06E
:1035D00009D86F2A29D0702A00D0B3E020220968C8
:1035E0000A43226037E0752A1FD0782A33D0A9E039
:1035F0000E001A684236111D196013683370A4E07A
:1036000021681A68080606D4490604D5111D1960F8
:103610000023D55E02E0111D19601568002D3BDA0C
:103620002D23049A6D42137036E021681A6808064B
:1036300006D4490604D51568111D1960ADB202E023
:10364000111D196015685F4B227E039308276F2AAE
:103650001DD00A271BE022007821453211705A4AFA
:1036600019680392081D226818600D68100602D4BC
:10367000500600D5ADB2D30702D520231A432260ED
:103680001027002D03D1202322689A4322602300B3
:10369000002243331A7002E00A274A4B03936368FF
:1036A000A360002B09DB0422216891432160002DD7
:1036B00005D1049E002B11D07BE0002D79D0049E13
:1036C00028003900FFF7C6F8039B013E5B5C280029
:1036D00033703900FFF738F8051EF1D1082F09D1F2
:1036E0002368DB0706D563682269934202DC302336
:1036F000013E3370049B9B1B23612BE009681A6811
:10370000080607D4490605D5111D19601368A28A59
:103710001A8004E0111D1960136862691A600023A1
:10372000049E236116E01A68111D196016680021B5
:1037300062683000FFF7B2FC002801D0801B606097
:10374000636803E0260042363270012323610023C0
:10375000049A1370079B09AA00932100069B059801
:10376000FFF7A4FE431C02D10120404227E0236959
:10377000320006990598079DA847431CF4D023689A
:1037800000259B070FD4099BE068984217DA1800C0
:1037900015E022000123193206990598079EB047CB
:1037A000431CE1D00135E368099A9B1A9D42F0DB86
:1037B000E9E72600039B42361B7833708EE70BB097
:1037C000F0BDC046A9530000BA530000F7B515007C
:1037D0008A6801900C00002A06D18A69511E8A412C
:1037E000012152420A43A2602268D20603D41A6819
:1037F000111D196017680026A06900281ED110222B
:1038000023680136134203D12B681B783B700137C4
:103810002A686B6801322A60A268013B013A6B603A
:10382000A260002A1ED0002BE6DCC0235B00E35818
:103830002900019898470028DED013E0012806D11E
:103840002B6862691B78D35C002BD8D11AE0022860
:1038500008D12B680D4A1B781268D31808225B78B0
:103860001342CCD010232268134006D1E268013203
:10387000E260A269002A00D03B70236900209E19F3
:10388000266101E0002EEDD1FEBDC04634F1FF1FE0
:10389000F0B50C008DB00293774B0590160009AA85
:1038A00023CB23C2754B0693A369032B01D0744B22
:1038B00006930022A36804925D32591EFF329142A2
:1038C00005D95E3BFF3B04935E23FF33A3602300D7
:1038D0001C330193D023002722681B01134323606C
:1038E000019B0393336809A81978BB00022218587A
:1038F000FFF7D4FB00283BD0012F0DD16368002BCC
:1039000006D1083322686360F933FF331343236021
:103910005C4B226813400EE0022F0DD1C0218022A3
:103920002368C90019409200914224D1F13AFF3A2C
:103930006260F03213432360A3685A1EA260002B1A
:1039400016D0039B5D1C33685A1C32601B78039AA7
:10395000039513707368013B7360002B08DCC02370
:103960005B00E3583100059807939847002847D13A
:103970000137032FB6D16368002B01D10A3363608E
:103980001021002763686069C91A3F4BC91800F00D
:10399000ADF9039DA368002B33D0326860691178BC
:1039A000405C00282DD030290DD1802021680001F5
:1039B000014208D0049A0137002A0BD0013A0133A2
:1039C0000492A36006E02168304B0B40236013781B
:1039D0002B7001357368013B7360002B03DD336886
:1039E0000133336008E0C0235B00E35831000598E1
:1039F00003939847002804D1A368013BA360C9E75B
:103A000000272368DB050ED5019B9D4207D9BE2305
:103A1000013D5B002978E358320005989847019BE7
:103A200001209D4225D0102223681A401AD12A7005
:103A3000636801990598069EB047029B22681B683F
:103A4000910607D4D10705D502991A1D0A601B6893
:103A5000188004E002991A1D0A601B681860E36868
:103A60000133E3600020019BED1A2369ED195D1914
:103A700025610DB0F0BDC046CC530000E93F000009
:103A80000D410000FFFAFFFFD8530000FFF6FFFFD3
:103A900070B50500080011000022064C22601A00D3
:103AA000FCF7DEFD431C03D12368002B00D02B6004
:103AB00070BDC046B0F5FF1F70B505000E001400C4
:103AC000002804D08369002B01D1FFF795F8154B2E
:103AD0009C4201D16C6808E0134B9C4201D1AC6858
:103AE00003E0124B9C4200D1EC68A368013BA36049
:103AF000002B10DAA269934207DB23681E7023684B
:103B000019780A290AD1220001E022003100280098
:103B100000F0BEFB05E023681E7023685A1C22607B
:103B2000187870BD345300005453000074530000E3
:103B3000092310B5828913400022092B02D1FEF718
:103B4000CDFF0200100010BDF8B505000C000028E4
:103B500004D08369002B01D1FFF74EF83D4B9C4206
:103B600001D16C6808E03C4B9C4201D1AC6803E099
:103B70003A4B9C4200D1EC680023A289636093B267
:103B8000990663D459071AD4D90605D409232B60A2
:103B900037331A43A28159E0082633420AD0210064
:103BA0002800FEF76FFF002850D1A389A060B3431F
:103BB000A381A0610422A3891343A38112E0616B56
:103BC00000290FD023004433994202D02800FFF788
:103BD00081FA0020236C60636360834202D0E36B50
:103BE000236035E02369002B03D121002800FFF773
:103BF000EFF9A789BEB2B3070FD00123A381184BF9
:103C000018491868FFF780F90923A7813340092B69
:103C100003D121002800FEF7AFFE2369226923604B
:103C200028006369216A656AA84702006060002075
:103C300082420DDCA389824204D120221343A38156
:103C4000013805E0402213436060A3810120404217
:103C5000F8BDC046345300005453000074530000B4
:103C600094530000313B000070B505000C000028A3
:103C700004D08369002B01D1FEF7BEFF0F4B9C429D
:103C800001D16C6808E00E4B9C4201D1AC6803E0A6
:103C90000C4B9C4200D1EC6821002800FFF754FF38
:103CA000002807D16368013B636023685A1C2260C7
:103CB000187801E00120404270BDC0463453000036
:103CC0005453000074530000002370B5064C0500E7
:103CD00008002360FCF7E2FD431C03D12368002B9E
:103CE00000D02B6070BDC046B0F5FF1F70B50B78DB
:103CF0005E2B02D04A1C002502E001254B788A1C6D
:103D00000100441CFF340D700131A142FBD1002B96
:103D100001D1501E1BE001214D401100C5540C780B
:103D20004A1C2D2C07D05D2C10D0002C01D0230074
:103D3000F3E708000BE04E785D2EF8D0B342F6DCD6
:103D400002310133C5549E42FBDCE8E7100070BD30
:103D50004A424A41802310B55200DB0000F002F8CD
:103D600010BD0000F7B51E003C4B04001D680F009D
:103D70000192002D05D0AB69002B02D12800FEF77F
:103D80003BFF374B9C4201D16C6808E0354B9C42AD
:103D900001D1AC6803E0344B9C4200D1EC68019B3C
:103DA000022B58D8002E56DB21002800FEF76AFEB1
:103DB00000236360A361A3891B0603D52169280042
:103DC000FFF788F98322A3899343A381019B022BE8
:103DD00013D0002F25D1002E01D18026F60030000F
:103DE000FFF748F9071E18D18020C000FFF742F9FD
:103DF000071E10D10120404200E000200222A389CA
:103E00001343A3810023A36023004733236023616E
:103E10000123636121E08026F6008022A3891343F9
:103E2000A381019B012B05D1A389019A1A437342F7
:103E3000A281A3610D4B0020AB62A289276027619C
:103E40006661130709D503231A40534253415B426D
:103E50001E40A66001E001204042FEBD30F1FF1F80
:103E6000345300005453000074530000752B0000BD
:103E70000EB410B59DB002A9029008610B488224CF
:103E800088604861012040421FABC881084804CBCC
:103E9000A400006801938C8100F0FCFB0023029ACF
:103EA00013701DB010BC08BC03B01847FFFFFF7FA4
:103EB00030F1FF1F0EB4812370B59DB002AC21AD6F
:103EC0009B0040CDA3810290069000F073F80B4B4D
:103ED000606063620023606109486363A364013B1F
:103EE000E38132002B0021000068019500F02CFDD9
:103EF0001DB070BC08BC03B01847C0462D3F000081
:103F000030F1FF1F70B50C000E25495F00F092FEE6
:103F1000002803DB636D1B18636503E0A289024B75
:103F20001340A38170BDC046FFEFFFFF0020704724
:103F3000F8B51F008B8905000C001600DB0505D5C0
:103F40000E23C95E0022022300F0F2FAA289054B7B
:103F500028001340A38132000E23E15E3B0000F0F5
:103F6000EFF9F8BDFFEFFFFF70B50C000E25495FBC
:103F700000F0DEFAA389421C03D1054A1340A38155
:103F800004E0802252011343A381606570BDC046E6
:103F9000FFEFFFFF10B50E23C95E00F059FA10BD08
:103FA00002780B78002A03D0013001319A42F7D011
:103FB000D01A70470023C25C0133002AFBD1581E7F
:103FC0007047002330B59A420BD0013AC45CCD5CF7
:103FD000AC4205D19A4202D00133002CF6D1250023
:103FE000631B180030BD0000F0B51E00454B87B0C4
:103FF0001B680192029308220B00059003911C7824
:1040000002995D1C09194878104001D02B00F6E791
:104010002D2C04D19D1C5C780123009304E00090BA
:104020002B2C01D15C789D1C002E02D0102E0AD1C1
:1040300062E0302C5ED120222B789343582B54D150
:1040400010266C780235009F31007B1E9F412E4B5D
:10405000FF183800FEF7FEFB380004913100FEF730
:1040600073FB00230322070094461800029A1219DA
:1040700051780422114201D0303C07E062461140E1
:1040800017D03722012900D02032A41AA64210DD11
:104090005A1C0BD0B84207D802D1049B9C4203DCC7
:1040A00070430123201801E001235B422C78013585
:1040B000DCE75A1C0BD10098059A431E9841124B1D
:1040C000C01822231360019B002B0AD117E0009A2D
:1040D000002A00D04042019A002A10D0039A002BF7
:1040E00000D06A1E019B1A6009E03024002EAAD17C
:1040F0000826A8E70A26A6E7302C9CD0A3E707B03D
:10410000F0BDC04634F1FF1FFFFFFF7FF0B51E007A
:104110003F4B87B01B680491029317000B000821E6
:1041200005901C78029A5D1C121952780A4001D041
:104130002B00F6E72D2C04D19D1C5C780123019304
:1041400004E001922B2C01D15C789D1C002E02D042
:10415000102E0AD157E0302C53D120222B789343D4
:10416000582B49D110266C7802350120310040428D
:10417000FEF7EAFA0390012031004042FEF76AFBA5
:1041800000238C461800029A121951780422114219
:1041900001D0303C07E00322114017D0343201290E
:1041A00000D02032A41AA64210DD002B09DB039BAD
:1041B000984206D801D1644503DC704301232018DE
:1041C00001E001235B422C780135DCE7002B07DAA4
:1041D00022230120059A40421360002F09D115E0E7
:1041E000019A002A00D04042002F0FD0049A002BE1
:1041F00000D06A1E3A6009E03024002EB5D10826AE
:10420000B3E70A26B1E7302CA7D0AEE707B0F0BD80
:1042100034F1FF1F0B00F7B54D6B44330C009D428A
:104220001BD18026F6003100FEF79AFF002802D14C
:104230000120404225E023006063A66346331A78DC
:10424000104BC254230045331A780F4BC2542A78BE
:104250000E4BC254C018206012E08E6B2900730010
:104260001A00019300F08DF9051EE1D087190100B5
:1042700032003800FEF71DFF019B27606563A363D2
:104280000020FEBDFF030000FE030000FD03000050
:10429000F8B505000F001400002804D08369002B36
:1042A00001D1FEF7A9FC234B9C4201D16C6808E0C8
:1042B000214B9C4201D1AC6803E0204B9C4200D1D1
:1042C000EC68A369A360A3891B070AD52369002BA7
:1042D00007D023682269FEB2981A636998420FDBFF
:1042E00008E02100280000F03FF80028F1D001206C
:1042F00040421DE021002800FEF7C4FB0028F6D153
:10430000A3680130013BA36023685A1C22601F7020
:104310006369984205D0A3893000DB0708D50A2ECF
:1043200006D121002800FEF7ADFB0028DFD13000C8
:10433000F8BDC046345300005453000074530000CD
:1043400070B50500080011000022064C22601A001A
:10435000FCF718FA431C03D12368002B00D02B6014
:1043600070BDC046B0F5FF1F354B70B51D68060027
:104370000C00002D05D0AB69002B02D12800FEF700
:104380003BFC304B9C4201D16C6808E02E4B9C42B8
:1043900001D1AC6803E02D4B9C4200D1EC68A389AD
:1043A0009AB2110723D4D10607D409220120326022
:1043B00037321343A381404240E0530713D5616B6A
:1043C000002908D023004433994202D03000FEF780
:1043D00081FE002363632422A3899343A3810023E6
:1043E0006360236923600822A3891343A38123699F
:1043F000002B0BD1A023A2899B00134080229200A6
:10440000934203D021003000FEF7E2FD0123A28990
:10441000134005D00023A36063695B42A36103E0FE
:10442000910700D46369A36000202369834205D10A
:10443000130603D540231A43A281013870BDC0463C
:1044400030F1FF1F34530000545300007453000038
:10445000002370B5064C050008002360FCF77CF9CA
:10446000431C03D12368002B00D02B6070BDC046D5
:10447000B0F5FF1F0B78F0B5722B0ED0772B07D05D
:10448000612B13D182248420A4000123400007E083
:10449000C0240123E400082002E0002404202300BB
:1044A0008026102536011C27AC4610E01623036039
:1044B000002018E0622D0FD0782D10D02B2D06D1C2
:1044C0006546B84328430325AB43013D2B430131E7
:1044D0000D78002DEED104E080256D02F6E7334320
:1044E000F5E723431360F0BD002370B5064C0500CB
:1044F000080011002360FCF7BDF9431C03D12368B9
:10450000002B00D02B6070BDB0F5FF1F002370B5ED
:10451000064C050008002360FCF784F9431C03D116
:104520002368002B00D02B6070BDC046B0F5FF1F84
:1045300070B50500080011000022064C22601A0028
:10454000FCF784F9431C03D12368002B00D02B60B7
:1045500070BDC046B0F5FF1F10B5884202D98B1858
:10456000984201D3002305E09B1A013A08D3995CD5
:104570008154FAE7934203D0CC5CC4540133F9E789
:1045800010BDF8B506000C001500002904D111007B
:10459000FEF7E6FD040018E0002A03D1FEF79AFDBD
:1045A0002C0012E000F05AFB85420ED929003000A1
:1045B000FEF7D6FD071E07D021002A00FEF779FD81
:1045C00021003000FEF786FD3C002000F8BD000011
:1045D000F0B58E6885B007000C00039201939E42EF
:1045E00043D890238A89DB001A423ED0032509690B
:1045F000236801985B1A029363695D43EB0F5D19B1
:10460000029B6D1001331B18AB4200D91D005305EE
:1046100010D529003800FEF7A3FD061E14D0029A1B
:104620002169FEF746FDA289194B134080221343EE
:10463000A38112E02A003800FFF7A3FF061E0CD169
:1046400021693800FEF746FD0C23402201203B6023
:10465000A38940421343A38117E0029B2661F61809
:1046600026606561019EED1AA560019BB34200D2F0
:104670001E00320003992068FFF76EFF0020A36838
:104680009B1BA36023689E19266005B0F0BDC04641
:104690007FFBFFFFF0B59FB0029005938B890F0061
:1046A00016001B0610D50B69002B0DD14021FEF71B
:1046B00057FD38603861002804D10C23029A013874
:1046C0001360D8E040237B61002306AD6B6120338B
:1046D0006B761033AB7634002378002B03D1A31B09
:1046E000049312D003E0252BF9D00134F4E7A31B87
:1046F000320039000298FFF76BFF431C00D1B4E091
:104700006A69049B944663446B612378002B00D153
:10471000ABE00122002352426A6002A954325218CF
:1047200001342B60EB60AB601370AB65534E2178A6
:1047300005223000FEF7B2FC002807D00123801BC1
:1047400083402A68013413432B60EFE72B68DA06B5
:1047500004D55322202102A8121811701A0704D57B
:1047600053222B2102A81218117022782A2A03D072
:10477000099B00200A210EE0059A111D126805917F
:10478000002A01DB099204E05242EA60022213434C
:104790002B6001340BE02278303A092A04D84B43CD
:1047A00001349B180120F6E7002800D009932378F4
:1047B0002E2B1ED163782A2B0AD1059B02341A1D99
:1047C0001B680592002B01DA01235B42079310E07E
:1047D00000230A201A0001346B602178303909293E
:1047E00004D84243013452180123F6E7002B00D0CD
:1047F0000792234E217803223000FEF74FFC002859
:1048000006D04023801B83402A68013413432B6069
:10481000217806221B48661C2976FEF73FFC0028FB
:1048200012D0194B002B06D10722059B0733934367
:104830000833059314E005AB00933A00134B2900AD
:10484000029800E000BF07E005AB00933A000F4B71
:1048500029000298FEF798FE0390039B013304D0D1
:104860006B69039A9B186B6135E7BB890B985B06F4
:1048700001D5012040421FB0F0BDC0469853000052
:104880009E530000A253000000000000D14500002C
:1048900070B50E0014004B1C02D10120404232E0E2
:1048A000938920229343626BA381CDB26368002A6F
:1048B0000ED0A26B934205DA2368013B23601E7081
:1048C000636810E02100FFF7A5FC0028F4D0E4E7BE
:1048D00021692268002908D0914206D2511E087829
:1048E000854202D1216001330BE02364230044336D
:1048F00063630323A36323004633E2631E702360D4
:1049000001232800636070BD10B50C00496B0029BD
:104910000ED023004433994201D0FEF7DBFB002088
:10492000236C60636360834202D0E36B236009E021
:10493000236920222360002301206360A389404271
:104940001343A38110BD0000F0B5B44C0D00A54485
:1049500003930023009048934993862005AB4A9324
:10496000BE234000019202A9AD4A5B000918CA505B
:1049700004331E00AB4A02A90918CA50019B1A78D9
:10498000002A00D141E10821A74C23689B185B78DD
:104990000B4023D06B68002B11DD2B6821681A783F
:1049A0008A18082152780A4214D0499A0133029297
:1049B000013249926A682B60013A6A60EAE786220E
:1049C00002AB52009B189B5929000098029398470C
:1049D0000028E2D0019F01370197CFE70199140029
:1049E0004F1C252A4DD1479345934B782A2B02D152
:1049F0001A3B459301373C000A2221780B00303BDB
:104A0000092B07D8479B013401935343303B591876
:104A10004791F2E7854F03223800FEF73FFB00285D
:104A200007D00123C01B8340459A013413430192F0
:104A30004593671C2478672C10D8652C00D383E03D
:104A40005B2C59D005D8002C00D1E0E0252C18D0E3
:104A50007CE0632C5ED0642C45D077E0702C33D0A2
:104A600007D86E2C5ED040D8692C6FD100234693B6
:104A700040E0752C37D0782C2CD0732C66D10223D3
:104A800046E06B68002B0EDD2B681A78944200D04C
:104A9000BBE001336A682B60499B013A0193013303
:104AA0006A60499398E7862202AB52009B189B5993
:104AB00029000098019398470028E5D048980028DD
:104AC00000D09EE00138A4E0459B01932023019A89
:104AD00013434593459B01938023019A9B00134305
:104AE0004593102302E00A2300E0082346930423A1
:104AF0006E2C0DDC03230BE0390005A8FFF7F6F858
:104B0000459B070001934023019A134345930123DA
:104B10004B931FE0459B01934023019A1343459318
:104B20000023F5E74599CB0600D555E7039B499A45
:104B3000C80704D5191D03911B681A804CE7191D7D
:104B400003911B681A6047E70523E1E703234B93B2
:104B5000073346936B68002B04DD459B01935B068E
:104B600017D51FE0862202AB52009B189B592900E3
:104B70000098019398470028EFD09FE7499A019247
:104B8000013249926A68013A6A60002A14DD0133F1
:104B90002B602B6824491A7809688A1808215278F2
:104BA0000A42EBD14B9B022B12DC03AB2A0045A936
:104BB0000098FEF70BFE1EE0862202AB52009B1807
:104BC0009B5929000098019398470028E1D075E788
:104BD000042B06DC03AB2A0045A90098FEF758FE1B
:104BE00009E0134B002B00D1F6E603AB2A0045A9E0
:104BF000009800E000BF012807D0022800D0EBE6B3
:104C00005CE7AB895B0604D501E0489801E0012030
:104C10004042A7239B009D44F0BDC04664FDFFFFBA
:104C2000914800000949000034F1FF1F9E53000025
:104C30000000000070B50500080011000022064CBD
:104C400022601A00FBF7CAFD431C03D12368002B26
:104C500000D02B6070BDC046B0F5FF1F0B1F1A6857
:104C6000101F002A04DA891804390B68D018043898
:104C700070470000F8B5C046F8BC08BC9E467047B7
:104C8000F8B5C046F8BC08BC9E4670476F626A2DF6
:104C90003E70696E20213D202850696E4E616D6521
:104CA000294E4300433A5C4A656E6B696E735C77CC
:104CB0006F726B73706163655C6D6265642D322D1C
:104CC0006275696C642D6C6962726172795C62757F
:104CD000696C645C6D6265645C5441524745545F25
:104CE0004B4C32355A5C5441524745545F467265CD
:104CF000657363616C655C5441524745545F4B4C2E
:104D000058582F6770696F5F6F626A6563742E68A9
:104D1000000000002F737464696E00002F737464C8
:104D2000657272002F7374646F7574000000000068
:104D30000000000000000000950800009508000039
:104D400095080000950800009508000095080000EF
:104D5000E905000000000000000000003A25700096
:104D6000457863657074696F6E00453A5C436F49BE
:104D70006465576F726B5C4749545C547261704351
:104D80006865636B65725C6672646D5F696D39320C
:104D900030635F736E645F636F6964655F6B6C3211
:104DA000357A5C6672646D5F696D393230635F734A
:104DB0006E645C6D6265645C5441524745545F4B60
:104DC0004C32355A5C5441524745545F46726565D2
:104DD0007363616C655C5441524745545F4B4C585A
:104DE000582F6770696F5F6F626A6563742E680021
:104DF0006F626A2D3E70696E20213D202850696ED9
:104E00004E616D65294E43002873746F705F62694F
:104E10007473203D3D203129207C7C202873746FE1
:104E2000705F62697473203D3D20322900000000EC
:104E3000433A5C4A656E6B696E735C776F726B7335
:104E4000706163655C6D6265642D322D6275696C9D
:104E5000642D6C6962726172795C6C6962726172F4
:104E60006965735C6D6265645C74617267657473B7
:104E70005C68616C5C5441524745545F467265659D
:104E80007363616C655C5441524745545F4B4C58A9
:104E9000585C5441524745545F4B4C32355A5C7311
:104EA000657269616C5F6170692E63002870617260
:104EB000697479203D3D205061726974794E6F6E3E
:104EC0006529207C7C2028706172697479203D3DC1
:104ED000205061726974794F646429207C7C202899
:104EE000706172697479203D3D20506172697479F6
:104EF0004576656E29000000646174615F626974C3
:104F000073203D3D2038000028696E742975617258
:104F10007420213D204E430070696E20213D2028E1
:104F200050696E4E616D65294E430000433A5C4AFC
:104F3000656E6B696E735C776F726B7370616365BE
:104F40005C6D6265642D322D6275696C642D6C69CF
:104F500062726172795C6C69627261726965735CBC
:104F60006D6265645C746172676574735C68616CC2
:104F70005C5441524745545F467265657363616C8A
:104F8000655C5441524745545F4B4C58585C7069BE
:104F90006E6D61702E6300000000000000000000D4
:104FA00001190000191900000000000000000000B5
:104FB000C90B000019100000011A0000191A0000A6
:104FC000C0FFFFFF00000000C51B0000C11B000068
:104FD000F11B0000211C00001D1C0000251C00000E
:104FE000291C0000F10B00002B100000211A00000A
:104FF000091A0000BCFFFFFF00000000010C0000C8
:105000003D10000000000000000000000000000053
:10501000C90900008D0B0000000000000000000026
:10502000B50B00004D100000411B00000000000007
:105030000000000000000000990B0000310D00008E
:10504000651B0000000000000000000000000000E0
:10505000C51B0000C11B0000F11B0000211C00004B
:105060001D1C0000251C0000291C00000000000081
:10507000000000009508000095080000FCFFFFFFFD
:10508000000000000000000000000000772B00007E
:105090006D626564206173736572746174696F6EAB
:1050A000206661696C65643A2025732C2066696C02
:1050B000653A2025732C206C696E65202564200AD2
:1050C00000000000000000000000000000000000E0
:1050D000000000000000000095080000636F756C80
:1050E00064206E6F742070696E6F7574000000002C
:1050F00070696E6D6170206D69732D6D6174636888
:105100000000000070696E6D6170206E6F74206623
:105110006F756E6420666F72207065726970686565
:1051200072616C0070696E6D6170206E6F742066C4
:105130006F756E6420666F722066756E6374696F3A
:105140006E000000412500005D250000892500005B
:10515000992500009D2500004451000084F4FF1FA4
:105160000C20000000B00640030000000400000016
:1051700000A00640020000001030000000C0064001
:10518000030000000830000000C0064003000000DB
:105190001830000000A00640030000005C40000042
:1051A00000C00640040000005440000000A006407B
:1051B000040000000440000000B0064003000000AE
:1051C000FFFF0000FFFFFFFF0000000010200000B5
:1051D00000B00640030000000800000000A00640E8
:1051E000020000001430000000C006400300000070
:1051F0000C30000000C00640030000001C3000001E
:1052000000A00640030000005040000000A006403F
:10521000040000005840000000C0064004000000E8
:105220000040000000B0064003000000FFFF000047
:10523000FFFFFFFF00000000FFFF0000FF00000075
:105240000F00000003000000010000006770696F9C
:105250005F697271206F6E6C7920737570706F72F8
:10526000746564206F6E20706F7274204120616ECF
:1052700064204400433A5C4A656E6B696E735C77E8
:105280006F726B73706163655C6D6265642D322D46
:105290006275696C642D6C6962726172795C6C69AB
:1052A000627261726965735C6D6265645C7461727F
:1052B000676574735C68616C5C5441524745545F28
:1052C000467265657363616C655C54415247455431
:1052D0005F4B4C58585C6770696F5F6170692E63F3
:1052E00000000000000000000000000000000000BE
:1052F000092600003D26000000000000000000001C
:105300009508000095080000950800009508000029
:105310009508000095080000E90500000000000065
:1053200000000000FCFFFFFF000000000000000084
:10533000000000000000000000000000000000006D
:10534000000000000000000000000000000000005D
:10535000000000000000000000000000000000004D
:10536000000000000000000000000000000000003D
:10537000000000000000000000000000000000002D
:10538000000000000000000000000000000000001D
:1053900000000000D0F0FF1F232D302B2000686C90
:1053A0004C00656667454647003031323334353648
:1053B0003738394142434445460030313233343581
:1053C000363738396162636465660000EA5300006D
:1053D000ED530000F0530000412D46612D66383931
:1053E00030313233343536375D002B2D003030000C
:1053F0007858000020202020202020202028282845
:10540000282820202020202020202020202020208C
:1054100020202020881010101010101010101010D4
:1054200010101010040404040404040404041010F4
:105430001010101010414141414141010101010191
:10544000010101010101010101010101010101103D
:105450001010101010424242424242020202020266
:10546000020202020202020202020202020202100E
:1054700010101020000000000000000000000000DC
:10548000000000000000000000000000000000001C
:10549000000000000000000000000000000000000C
:1054A00000000000000000000000000000000000FC
:1054B00000000000000000000000000000000000EC
:1054C00000000000000000000000000000000000DC
:1054D00000000000000000000000000000000000CC
:1054E00000000000000000000000000000000000BC
:0854F0000000000000000000B4
:0854F800CCAFFF7F01000000B2
:1055000000000000B8F5FF1F006CDC020100000085
:105510000000000034530000545300007453000096
:10552000000000000000000000000000000000007B
:10553000064E000000000000000000000000000017
:10554000000000000000000000000000000000005B
:10555000000000000000000000000000000000004B
:10556000000000000000000000000000000000003B
:10557000D0F0FF1FF3530000890400006110000009
:045580005D040000C6
:04000003000000C138
:00000001FF
